{
  "contractName": "CourseManagement",
  "abi": [
    {
      "inputs": [],
      "payable": false,
      "stateMutability": "nonpayable",
      "type": "constructor"
    },
    {
      "anonymous": false,
      "inputs": [
        {
          "indexed": false,
          "internalType": "string",
          "name": "message",
          "type": "string"
        }
      ],
      "name": "courseAdded",
      "type": "event"
    },
    {
      "constant": true,
      "inputs": [
        {
          "internalType": "uint256",
          "name": "",
          "type": "uint256"
        }
      ],
      "name": "allcourses",
      "outputs": [
        {
          "internalType": "uint256",
          "name": "",
          "type": "uint256"
        }
      ],
      "payable": false,
      "stateMutability": "view",
      "type": "function"
    },
    {
      "constant": true,
      "inputs": [
        {
          "internalType": "uint256",
          "name": "",
          "type": "uint256"
        }
      ],
      "name": "instructorAccts",
      "outputs": [
        {
          "internalType": "address",
          "name": "",
          "type": "address"
        }
      ],
      "payable": false,
      "stateMutability": "view",
      "type": "function"
    },
    {
      "constant": true,
      "inputs": [
        {
          "internalType": "uint256",
          "name": "",
          "type": "uint256"
        }
      ],
      "name": "studentsAccts",
      "outputs": [
        {
          "internalType": "address",
          "name": "",
          "type": "address"
        }
      ],
      "payable": false,
      "stateMutability": "view",
      "type": "function"
    },
    {
      "constant": false,
      "inputs": [
        {
          "internalType": "address",
          "name": "_address",
          "type": "address"
        },
        {
          "internalType": "string",
          "name": "_fullname",
          "type": "string"
        },
        {
          "internalType": "uint256[]",
          "name": "_courses",
          "type": "uint256[]"
        }
      ],
      "name": "addInstrcutor",
      "outputs": [],
      "payable": false,
      "stateMutability": "nonpayable",
      "type": "function"
    }
  ],
  "bytecode": "0x608060405234801561001057600080fd5b5033600660006101000a81548173ffffffffffffffffffffffffffffffffffffffff021916908373ffffffffffffffffffffffffffffffffffffffff1602179055506105fd806100616000396000f3fe608060405234801561001057600080fd5b506004361061004c5760003560e01c806333d3e5d11461005157806388a62732146101c05780638eb5234c1461022e578063e1181b881461029c575b600080fd5b6101be6004803603606081101561006757600080fd5b81019080803573ffffffffffffffffffffffffffffffffffffffff169060200190929190803590602001906401000000008111156100a457600080fd5b8201836020820111156100b657600080fd5b803590602001918460018302840111640100000000831117156100d857600080fd5b91908080601f016020809104026020016040519081016040528093929190818152602001838380828437600081840152601f19601f8201169050808301925050505050505091929192908035906020019064010000000081111561013b57600080fd5b82018360208201111561014d57600080fd5b8035906020019184602083028401116401000000008311171561016f57600080fd5b919080806020026020016040519081016040528093929190818152602001838360200280828437600081840152601f19601f8201169050808301925050505050505091929192905050506102de565b005b6101ec600480360360208110156101d657600080fd5b810190808035906020019092919050505061043d565b604051808273ffffffffffffffffffffffffffffffffffffffff1673ffffffffffffffffffffffffffffffffffffffff16815260200191505060405180910390f35b61025a6004803603602081101561024457600080fd5b8101908080359060200190929190505050610479565b604051808273ffffffffffffffffffffffffffffffffffffffff1673ffffffffffffffffffffffffffffffffffffffff16815260200191505060405180910390f35b6102c8600480360360208110156102b257600080fd5b81019080803590602001909291905050506104b5565b6040518082815260200191505060405180910390f35b60405180606001604052808473ffffffffffffffffffffffffffffffffffffffff16815260200183815260200182815250600160008573ffffffffffffffffffffffffffffffffffffffff1673ffffffffffffffffffffffffffffffffffffffff16815260200190815260200160002060008201518160000160006101000a81548173ffffffffffffffffffffffffffffffffffffffff021916908373ffffffffffffffffffffffffffffffffffffffff16021790555060208201518160010190805190602001906103b19291906104d6565b5060408201518160020190805190602001906103ce929190610556565b5090505060038390806001815401808255809150509060018203906000526020600020016000909192909190916101000a81548173ffffffffffffffffffffffffffffffffffffffff021916908373ffffffffffffffffffffffffffffffffffffffff16021790555050505050565b6005818154811061044a57fe5b906000526020600020016000915054906101000a900473ffffffffffffffffffffffffffffffffffffffff1681565b6003818154811061048657fe5b906000526020600020016000915054906101000a900473ffffffffffffffffffffffffffffffffffffffff1681565b600481815481106104c257fe5b906000526020600020016000915090505481565b828054600181600116156101000203166002900490600052602060002090601f016020900481019282601f1061051757805160ff1916838001178555610545565b82800160010185558215610545579182015b82811115610544578251825591602001919060010190610529565b5b50905061055291906105a3565b5090565b828054828255906000526020600020908101928215610592579160200282015b82811115610591578251825591602001919060010190610576565b5b50905061059f91906105a3565b5090565b6105c591905b808211156105c15760008160009055506001016105a9565b5090565b9056fea265627a7a72315820506a56d5c9532b4b47b357ee7628b54220c438bc718cf453d3ac26dedacc570264736f6c63430005100032",
  "source": "// SPDX-License-Identifier: MIT\r\npragma solidity >=0.4.22 <0.9.0;\r\n\r\ncontract CourseManagement {\r\n    struct Course {\r\n        uint256 id;\r\n        string name;\r\n        address payable ownerAddress;\r\n        uint256 price;\r\n        uint256[] students; // all buyers of a course\r\n        string imgURL;\r\n    }\r\n\r\n    //buyer\r\n    struct Student {\r\n        uint256 id;\r\n        string name;\r\n        uint256[] courses; //students owned courses\r\n    }\r\n\r\n    //seller\r\n    struct Instructor {\r\n        address id;\r\n        string name;\r\n        uint256[] courses; //instructors uploaded courses\r\n    }\r\n    event courseAdded(string message);\r\n    mapping(uint256 => Course) courses;\r\n    mapping(address => Instructor) instructors;\r\n    mapping(address => Student) students;\r\n\r\n    address[] public instructorAccts;\r\n    uint256[] public allcourses;\r\n    address[] public studentsAccts;\r\n    address owner;\r\n\r\n    constructor() public {\r\n        owner = msg.sender;\r\n    }\r\n\r\n    function addInstrcutor(address _address,  string memory _fullname, uint256[] memory _courses) public {\r\n    \r\n    instructors[_address] = Instructor(\r\n        {\r\n            id: _address,\r\n            name: _fullname,\r\n            courses: _courses\r\n          \r\n        }\r\n    );\r\n    \r\n    instructorAccts.push(_address);\r\n}\r\n\r\n    // function setInstructor(address _address, string memory _fullname) public {\r\n    //   address instructor;\r\n    //    instructor = instructors[_address];\r\n    //     instructor.name = _fullname;\r\n        \r\n        \r\n\r\n    // }\r\n\r\n    //  function getInstructors() view public returns( address[]) {\r\n    //     return instructorAccts;\r\n    // }\r\n    \r\n    // function getInstructor(address _address) view public returns (uint, string, string) {\r\n    //     return (instructors[_address].age, instructors[_address].fName, instructors[_address].lName);\r\n    // }\r\n    \r\n    // function countInstructors() view public returns (uint) {\r\n    //     return instructorAccts.length;\r\n    // }\r\n}\r\n",
  "sourcePath": "C:\\Users\\PaulDwamena\\Desktop\\marketplace\\blockchain-courses-market-place\\contracts\\CourseManagement.sol",
  "compiler": {
    "name": "solc",
    "version": "0.5.16+commit.9c3226ce.Emscripten.clang"
  },
  "schemaVersion": "3.4.7",
  "updatedAt": "2022-05-21T12:30:43.018Z",
  "networkType": "ethereum",
  "devdoc": {
    "methods": {}
  },
  "userdoc": {
    "methods": {}
  }
}