{
  "contractName": "CourseManagement",
  "abi": [
    {
      "inputs": [],
      "payable": false,
      "stateMutability": "nonpayable",
      "type": "constructor"
    },
    {
      "anonymous": false,
      "inputs": [
        {
          "indexed": false,
          "internalType": "string",
          "name": "message",
          "type": "string"
        }
      ],
      "name": "courseAdded",
      "type": "event"
    },
    {
      "constant": false,
      "inputs": [
        {
          "internalType": "uint256",
          "name": "courseID",
          "type": "uint256"
        }
      ],
      "name": "buyCourse",
      "outputs": [],
      "payable": true,
      "stateMutability": "payable",
      "type": "function"
    }
  ],
  "bytecode": "0x608060405234801561001057600080fd5b5033600360006101000a81548173ffffffffffffffffffffffffffffffffffffffff021916908373ffffffffffffffffffffffffffffffffffffffff1602179055506101a8806100616000396000f3fe60806040526004361061001e5760003560e01c8063194d73a214610023575b600080fd5b61004f6004803603602081101561003957600080fd5b8101908080359060200190929190505050610051565b005b6000808281526020019081526020016000206003015434101561007357600080fd5b60008082815260200190815260200160002060020160009054906101000a900473ffffffffffffffffffffffffffffffffffffffff1673ffffffffffffffffffffffffffffffffffffffff166108fc600080848152602001908152602001600020600301549081150290604051600060405180830381858888f19350505050158015610103573d6000803e3d6000fd5b50600260003373ffffffffffffffffffffffffffffffffffffffff1673ffffffffffffffffffffffffffffffffffffffff1681526020019081526020016000206002018190806001815401808255809150509060018203906000526020600020016000909192909190915055505056fea265627a7a72315820355e02b89194489b77afc8648da09c0f7d99872af33d1a5eb22b740d4f63f08364736f6c63430005100032",
  "source": "// SPDX-License-Identifier: MIT\npragma solidity >=0.4.21 <8.10.0;\n\ncontract CourseManagement {\n    struct Course {\n        uint256 id;\n        string name;\n        address payable ownerAddress;\n        uint256 price;\n        uint256[] students; // all buyers of a course\n        string imgURL;\n    }\n\n    //buyer\n    struct Student {\n        uint256 id;\n        string name;\n        uint256[] courses; //students owned courses\n    }\n\n    //seller\n    struct Instructor {\n        uint256 id;\n        string name;\n        uint256[] courses; //instructors uploaded courses\n    }\n    event courseAdded(string message);\n    mapping(uint256 => Course) allCourses;\n    mapping(address => Instructor) instructors;\n    mapping(address => Student) students;\n    address owner;\n\n    //contract owner\n    constructor() public {\n        owner = msg.sender;\n    }\n\n    function buyCourse(uint256 courseID) public payable {\n        require(msg.value >= (allCourses[courseID].price));\n        allCourses[courseID].ownerAddress.transfer(allCourses[courseID].price);\n        students[msg.sender].courses.push(courseID);\n    }\n\n    // function set(uint x) public {\n    //   storedData = x;\n    // }\n\n    // function get() public view returns (uint) {\n    //   return storedData;\n    // }\n}\n",
  "sourcePath": "C:\\Users\\deeda\\OneDrive\\Documents\\projects\\coarses-market\\contracts\\CourseManagement.sol",
  "compiler": {
    "name": "solc",
    "version": "0.5.16+commit.9c3226ce.Emscripten.clang"
  },
  "schemaVersion": "3.4.3",
  "updatedAt": "2022-05-21T08:49:29.676Z",
  "devdoc": {
    "methods": {}
  },
  "userdoc": {
    "methods": {}
  }
}